{
  "contractName": "Wallet",
  "abi": [
    {
      "anonymous": false,
      "inputs": [
        {
          "indexed": true,
          "internalType": "address",
          "name": "previousOwner",
          "type": "address"
        },
        {
          "indexed": true,
          "internalType": "address",
          "name": "newOwner",
          "type": "address"
        }
      ],
      "name": "OwnershipTransferred",
      "type": "event"
    },
    {
      "inputs": [],
      "name": "owner",
      "outputs": [
        {
          "internalType": "address",
          "name": "",
          "type": "address"
        }
      ],
      "stateMutability": "view",
      "type": "function",
      "constant": true
    },
    {
      "inputs": [],
      "name": "renounceOwnership",
      "outputs": [],
      "stateMutability": "nonpayable",
      "type": "function"
    },
    {
      "inputs": [
        {
          "internalType": "uint256",
          "name": "",
          "type": "uint256"
        }
      ],
      "name": "tokenList",
      "outputs": [
        {
          "internalType": "string",
          "name": "",
          "type": "string"
        }
      ],
      "stateMutability": "view",
      "type": "function",
      "constant": true
    },
    {
      "inputs": [
        {
          "internalType": "string",
          "name": "",
          "type": "string"
        }
      ],
      "name": "tokens",
      "outputs": [
        {
          "internalType": "string",
          "name": "ticker",
          "type": "string"
        },
        {
          "internalType": "address",
          "name": "tokenAddress",
          "type": "address"
        }
      ],
      "stateMutability": "view",
      "type": "function",
      "constant": true
    },
    {
      "inputs": [
        {
          "internalType": "address",
          "name": "",
          "type": "address"
        },
        {
          "internalType": "string",
          "name": "",
          "type": "string"
        }
      ],
      "name": "traderBalances",
      "outputs": [
        {
          "internalType": "uint256",
          "name": "",
          "type": "uint256"
        }
      ],
      "stateMutability": "view",
      "type": "function",
      "constant": true
    },
    {
      "inputs": [
        {
          "internalType": "address",
          "name": "newOwner",
          "type": "address"
        }
      ],
      "name": "transferOwnership",
      "outputs": [],
      "stateMutability": "nonpayable",
      "type": "function"
    },
    {
      "inputs": [
        {
          "internalType": "string",
          "name": "ticker",
          "type": "string"
        },
        {
          "internalType": "address",
          "name": "tokenAddress",
          "type": "address"
        }
      ],
      "name": "addToken",
      "outputs": [],
      "stateMutability": "nonpayable",
      "type": "function"
    },
    {
      "inputs": [
        {
          "internalType": "uint256",
          "name": "amount",
          "type": "uint256"
        },
        {
          "internalType": "string",
          "name": "ticker",
          "type": "string"
        }
      ],
      "name": "deposit",
      "outputs": [],
      "stateMutability": "nonpayable",
      "type": "function"
    },
    {
      "inputs": [
        {
          "internalType": "uint256",
          "name": "amount",
          "type": "uint256"
        },
        {
          "internalType": "string",
          "name": "ticker",
          "type": "string"
        }
      ],
      "name": "withdraw",
      "outputs": [],
      "stateMutability": "nonpayable",
      "type": "function"
    }
  ],
  "bytecode": "0x608060405234801561001057600080fd5b5061002d61002261003260201b60201c565b61003a60201b60201c565b6100fe565b600033905090565b60008060009054906101000a900473ffffffffffffffffffffffffffffffffffffffff169050816000806101000a81548173ffffffffffffffffffffffffffffffffffffffff021916908373ffffffffffffffffffffffffffffffffffffffff1602179055508173ffffffffffffffffffffffffffffffffffffffff168173ffffffffffffffffffffffffffffffffffffffff167f8be0079c531659141344cd1fd0a4f28419497f9722a3daafe3b4186f6b6457e060405160405180910390a35050565b6117338061010d6000396000f3fe608060405234801561001057600080fd5b50600436106100935760003560e01c80639ead7222116100665780639ead722214610121578063b0b22c2c14610151578063dc048cf21461016d578063f1215d2514610189578063f2fde38b146101a557610093565b806304c2320b14610098578063715018a6146100c9578063769c5a19146100d35780638da5cb5b14610103575b600080fd5b6100b260048036038101906100ad9190610d2a565b6101c1565b6040516100c0929190610e33565b60405180910390f35b6100d16102a3565b005b6100ed60048036038101906100e89190610e8f565b6102b7565b6040516100fa9190610f04565b60405180910390f35b61010b6102f2565b6040516101189190610f1f565b60405180910390f35b61013b60048036038101906101369190610f66565b61031b565b6040516101489190610f93565b60405180910390f35b61016b60048036038101906101669190610fb5565b6103c7565b005b61018760048036038101906101829190611011565b6104b1565b005b6101a3600480360381019061019e9190611011565b610792565b005b6101bf60048036038101906101ba919061106d565b6109d7565b005b6001818051602081018201805184825260208301602085012081835280955050505050506000915090508060000180546101fa906110c9565b80601f0160208091040260200160405190810160405280929190818152602001828054610226906110c9565b80156102735780601f1061024857610100808354040283529160200191610273565b820191906000526020600020905b81548152906001019060200180831161025657829003601f168201915b5050505050908060010160009054906101000a900473ffffffffffffffffffffffffffffffffffffffff16905082565b6102ab610a5a565b6102b56000610ad8565b565b600360205281600052604060002081805160208101820180518482526020830160208501208183528095505050505050600091509150505481565b60008060009054906101000a900473ffffffffffffffffffffffffffffffffffffffff16905090565b6002818154811061032b57600080fd5b906000526020600020016000915090508054610346906110c9565b80601f0160208091040260200160405190810160405280929190818152602001828054610372906110c9565b80156103bf5780601f10610394576101008083540402835291602001916103bf565b820191906000526020600020905b8154815290600101906020018083116103a257829003601f168201915b505050505081565b6103cf610a5a565b60405180604001604052808381526020018273ffffffffffffffffffffffffffffffffffffffff1681525060018360405161040a9190611136565b9081526020016040518091039020600082015181600001908161042d91906112f9565b5060208201518160010160006101000a81548173ffffffffffffffffffffffffffffffffffffffff021916908373ffffffffffffffffffffffffffffffffffffffff1602179055509050506002829080600181540180825580915050600190039060005260206000200160009091909190915090816104ac91906112f9565b505050565b80600073ffffffffffffffffffffffffffffffffffffffff166001826040516104da9190611136565b908152602001604051809103902060010160009054906101000a900473ffffffffffffffffffffffffffffffffffffffff1673ffffffffffffffffffffffffffffffffffffffff1603610562576040517f08c379a000000000000000000000000000000000000000000000000000000000815260040161055990611417565b60405180910390fd5b82600360003373ffffffffffffffffffffffffffffffffffffffff1673ffffffffffffffffffffffffffffffffffffffff168152602001908152602001600020836040516105b09190611136565b9081526020016040518091039020541015610600576040517f08c379a00000000000000000000000000000000000000000000000000000000081526004016105f790611483565b60405180910390fd5b61066e83600360003373ffffffffffffffffffffffffffffffffffffffff1673ffffffffffffffffffffffffffffffffffffffff168152602001908152602001600020846040516106519190611136565b908152602001604051809103902054610b9c90919063ffffffff16565b600360003373ffffffffffffffffffffffffffffffffffffffff1673ffffffffffffffffffffffffffffffffffffffff168152602001908152602001600020836040516106bb9190611136565b9081526020016040518091039020819055506001826040516106dd9190611136565b908152602001604051809103902060010160009054906101000a900473ffffffffffffffffffffffffffffffffffffffff1673ffffffffffffffffffffffffffffffffffffffff1663a9059cbb33856040518363ffffffff1660e01b81526004016107499291906114a3565b6020604051808303816000875af1158015610768573d6000803e3d6000fd5b505050506040513d601f19601f8201168201806040525081019061078c9190611504565b50505050565b80600073ffffffffffffffffffffffffffffffffffffffff166001826040516107bb9190611136565b908152602001604051809103902060010160009054906101000a900473ffffffffffffffffffffffffffffffffffffffff1673ffffffffffffffffffffffffffffffffffffffff1603610843576040517f08c379a000000000000000000000000000000000000000000000000000000000815260040161083a90611417565b60405180910390fd5b6001826040516108539190611136565b908152602001604051809103902060010160009054906101000a900473ffffffffffffffffffffffffffffffffffffffff1673ffffffffffffffffffffffffffffffffffffffff166323b872dd3330866040518463ffffffff1660e01b81526004016108c193929190611531565b6020604051808303816000875af11580156108e0573d6000803e3d6000fd5b505050506040513d601f19601f820116820180604052508101906109049190611504565b5061097383600360003373ffffffffffffffffffffffffffffffffffffffff1673ffffffffffffffffffffffffffffffffffffffff168152602001908152602001600020846040516109569190611136565b908152602001604051809103902054610bb290919063ffffffff16565b600360003373ffffffffffffffffffffffffffffffffffffffff1673ffffffffffffffffffffffffffffffffffffffff168152602001908152602001600020836040516109c09190611136565b908152602001604051809103902081905550505050565b6109df610a5a565b600073ffffffffffffffffffffffffffffffffffffffff168173ffffffffffffffffffffffffffffffffffffffff1603610a4e576040517f08c379a0000000000000000000000000000000000000000000000000000000008152600401610a45906115da565b60405180910390fd5b610a5781610ad8565b50565b610a62610bc8565b73ffffffffffffffffffffffffffffffffffffffff16610a806102f2565b73ffffffffffffffffffffffffffffffffffffffff1614610ad6576040517f08c379a0000000000000000000000000000000000000000000000000000000008152600401610acd90611646565b60405180910390fd5b565b60008060009054906101000a900473ffffffffffffffffffffffffffffffffffffffff169050816000806101000a81548173ffffffffffffffffffffffffffffffffffffffff021916908373ffffffffffffffffffffffffffffffffffffffff1602179055508173ffffffffffffffffffffffffffffffffffffffff168173ffffffffffffffffffffffffffffffffffffffff167f8be0079c531659141344cd1fd0a4f28419497f9722a3daafe3b4186f6b6457e060405160405180910390a35050565b60008183610baa9190611695565b905092915050565b60008183610bc091906116c9565b905092915050565b600033905090565b6000604051905090565b600080fd5b600080fd5b600080fd5b600080fd5b6000601f19601f8301169050919050565b7f4e487b7100000000000000000000000000000000000000000000000000000000600052604160045260246000fd5b610c3782610bee565b810181811067ffffffffffffffff82111715610c5657610c55610bff565b5b80604052505050565b6000610c69610bd0565b9050610c758282610c2e565b919050565b600067ffffffffffffffff821115610c9557610c94610bff565b5b610c9e82610bee565b9050602081019050919050565b82818337600083830152505050565b6000610ccd610cc884610c7a565b610c5f565b905082815260208101848484011115610ce957610ce8610be9565b5b610cf4848285610cab565b509392505050565b600082601f830112610d1157610d10610be4565b5b8135610d21848260208601610cba565b91505092915050565b600060208284031215610d4057610d3f610bda565b5b600082013567ffffffffffffffff811115610d5e57610d5d610bdf565b5b610d6a84828501610cfc565b91505092915050565b600081519050919050565b600082825260208201905092915050565b60005b83811015610dad578082015181840152602081019050610d92565b60008484015250505050565b6000610dc482610d73565b610dce8185610d7e565b9350610dde818560208601610d8f565b610de781610bee565b840191505092915050565b600073ffffffffffffffffffffffffffffffffffffffff82169050919050565b6000610e1d82610df2565b9050919050565b610e2d81610e12565b82525050565b60006040820190508181036000830152610e4d8185610db9565b9050610e5c6020830184610e24565b9392505050565b610e6c81610e12565b8114610e7757600080fd5b50565b600081359050610e8981610e63565b92915050565b60008060408385031215610ea657610ea5610bda565b5b6000610eb485828601610e7a565b925050602083013567ffffffffffffffff811115610ed557610ed4610bdf565b5b610ee185828601610cfc565b9150509250929050565b6000819050919050565b610efe81610eeb565b82525050565b6000602082019050610f196000830184610ef5565b92915050565b6000602082019050610f346000830184610e24565b92915050565b610f4381610eeb565b8114610f4e57600080fd5b50565b600081359050610f6081610f3a565b92915050565b600060208284031215610f7c57610f7b610bda565b5b6000610f8a84828501610f51565b91505092915050565b60006020820190508181036000830152610fad8184610db9565b905092915050565b60008060408385031215610fcc57610fcb610bda565b5b600083013567ffffffffffffffff811115610fea57610fe9610bdf565b5b610ff685828601610cfc565b925050602061100785828601610e7a565b9150509250929050565b6000806040838503121561102857611027610bda565b5b600061103685828601610f51565b925050602083013567ffffffffffffffff81111561105757611056610bdf565b5b61106385828601610cfc565b9150509250929050565b60006020828403121561108357611082610bda565b5b600061109184828501610e7a565b91505092915050565b7f4e487b7100000000000000000000000000000000000000000000000000000000600052602260045260246000fd5b600060028204905060018216806110e157607f821691505b6020821081036110f4576110f361109a565b5b50919050565b600081905092915050565b600061111082610d73565b61111a81856110fa565b935061112a818560208601610d8f565b80840191505092915050565b60006111428284611105565b915081905092915050565b60008190508160005260206000209050919050565b60006020601f8301049050919050565b600082821b905092915050565b6000600883026111af7fffffffffffffffffffffffffffffffffffffffffffffffffffffffffffffffff82611172565b6111b98683611172565b95508019841693508086168417925050509392505050565b6000819050919050565b60006111f66111f16111ec84610eeb565b6111d1565b610eeb565b9050919050565b6000819050919050565b611210836111db565b61122461121c826111fd565b84845461117f565b825550505050565b600090565b61123961122c565b611244818484611207565b505050565b5b818110156112685761125d600082611231565b60018101905061124a565b5050565b601f8211156112ad5761127e8161114d565b61128784611162565b81016020851015611296578190505b6112aa6112a285611162565b830182611249565b50505b505050565b600082821c905092915050565b60006112d0600019846008026112b2565b1980831691505092915050565b60006112e983836112bf565b9150826002028217905092915050565b61130282610d73565b67ffffffffffffffff81111561131b5761131a610bff565b5b61132582546110c9565b61133082828561126c565b600060209050601f8311600181146113635760008415611351578287015190505b61135b85826112dd565b8655506113c3565b601f1984166113718661114d565b60005b8281101561139957848901518255600182019150602085019450602081019050611374565b868310156113b657848901516113b2601f8916826112bf565b8355505b6001600288020188555050505b505050505050565b7f7468697320746f6b656e20646f6573206e6f7420657869737400000000000000600082015250565b6000611401601983610d7e565b915061140c826113cb565b602082019050919050565b60006020820190508181036000830152611430816113f4565b9050919050565b7f62616c616e636520746f6f206c6f770000000000000000000000000000000000600082015250565b600061146d600f83610d7e565b915061147882611437565b602082019050919050565b6000602082019050818103600083015261149c81611460565b9050919050565b60006040820190506114b86000830185610e24565b6114c56020830184610ef5565b9392505050565b60008115159050919050565b6114e1816114cc565b81146114ec57600080fd5b50565b6000815190506114fe816114d8565b92915050565b60006020828403121561151a57611519610bda565b5b6000611528848285016114ef565b91505092915050565b60006060820190506115466000830186610e24565b6115536020830185610e24565b6115606040830184610ef5565b949350505050565b7f4f776e61626c653a206e6577206f776e657220697320746865207a65726f206160008201527f6464726573730000000000000000000000000000000000000000000000000000602082015250565b60006115c4602683610d7e565b91506115cf82611568565b604082019050919050565b600060208201905081810360008301526115f3816115b7565b9050919050565b7f4f776e61626c653a2063616c6c6572206973206e6f7420746865206f776e6572600082015250565b6000611630602083610d7e565b915061163b826115fa565b602082019050919050565b6000602082019050818103600083015261165f81611623565b9050919050565b7f4e487b7100000000000000000000000000000000000000000000000000000000600052601160045260246000fd5b60006116a082610eeb565b91506116ab83610eeb565b92508282039050818111156116c3576116c2611666565b5b92915050565b60006116d482610eeb565b91506116df83610eeb565b92508282019050808211156116f7576116f6611666565b5b9291505056fea264697066735822122007e3526927fad110c2da00b02a3bbf16c70e2876f6729c9b1ed6ef3f43b4e2a364736f6c63430008110033",
  "immutableReferences": {},
  "source": "pragma solidity ^0.8.0;\r\n//SPDX-License-Identifier: UNLICENSED\r\n\r\nimport \"../node_modules/@openzeppelin/contracts/token/ERC20/IERC20.sol\";\r\nimport \"../node_modules/@openzeppelin/contracts/access/Ownable.sol\";\r\nimport \"../node_modules/@openzeppelin/contracts/utils/math/SafeMath.sol\";\r\n\r\ncontract Wallet is Ownable {\r\n    using SafeMath for uint256;\r\n    struct Token {\r\n        string ticker;\r\n        address tokenAddress;\r\n    }\r\n\r\n    mapping(string => Token) public tokens;\r\n    string[] public tokenList;\r\n    mapping(address => mapping(string => uint256)) public traderBalances;\r\n\r\n    function addToken(\r\n        string memory ticker,\r\n        address tokenAddress\r\n    ) external onlyOwner {\r\n        tokens[ticker] = Token(ticker, tokenAddress);\r\n        tokenList.push(ticker);\r\n    }\r\n\r\n    function deposit(\r\n        uint amount,\r\n        string memory ticker\r\n    ) external tokenExist(ticker) {\r\n        IERC20(tokens[ticker].tokenAddress).transferFrom(\r\n            msg.sender,\r\n            address(this),\r\n            amount\r\n        );\r\n        traderBalances[msg.sender][ticker] = traderBalances[msg.sender][ticker]\r\n            .add(amount);\r\n    }\r\n\r\n    function withdraw(\r\n        uint amount,\r\n        string memory ticker\r\n    ) external tokenExist(ticker) {\r\n        require(\r\n            traderBalances[msg.sender][ticker] >= amount,\r\n            \"balance too low\"\r\n        );\r\n        traderBalances[msg.sender][ticker] = traderBalances[msg.sender][ticker]\r\n            .sub(amount);\r\n        IERC20(tokens[ticker].tokenAddress).transfer(msg.sender, amount);\r\n    }\r\n\r\n    modifier tokenExist(string memory ticker) {\r\n        require(\r\n            tokens[ticker].tokenAddress != address(0),\r\n            \"this token does not exist\"\r\n        );\r\n        _;\r\n    }\r\n}\r\n",
  "sourcePath": "E:\\Github\\Moralis-ETH-Course-201\\contracts\\wallet.sol",
  "compiler": {
    "name": "solc",
    "version": "0.8.17+commit.8df45f5f.Emscripten.clang"
  },
  "schemaVersion": "3.4.11",
  "updatedAt": "2022-12-29T18:12:29.455Z",
  "networkType": "ethereum",
  "devdoc": {
    "kind": "dev",
    "methods": {
      "owner()": {
        "details": "Returns the address of the current owner."
      },
      "renounceOwnership()": {
        "details": "Leaves the contract without owner. It will not be possible to call `onlyOwner` functions anymore. Can only be called by the current owner. NOTE: Renouncing ownership will leave the contract without an owner, thereby removing any functionality that is only available to the owner."
      },
      "transferOwnership(address)": {
        "details": "Transfers ownership of the contract to a new account (`newOwner`). Can only be called by the current owner."
      }
    },
    "version": 1
  },
  "userdoc": {
    "kind": "user",
    "methods": {},
    "version": 1
  }
}